{
  "contractName": "DocumentState",
  "abi": [
    {
      "inputs": [
        {
          "internalType": "address",
          "name": "_usersContractAddress",
          "type": "address"
        }
      ],
      "stateMutability": "nonpayable",
      "type": "constructor"
    },
    {
      "anonymous": false,
      "inputs": [
        {
          "indexed": true,
          "internalType": "uint256",
          "name": "id",
          "type": "uint256"
        },
        {
          "indexed": false,
          "internalType": "string",
          "name": "documentName",
          "type": "string"
        },
        {
          "indexed": true,
          "internalType": "address",
          "name": "issuer",
          "type": "address"
        }
      ],
      "name": "DocumentCreated",
      "type": "event"
    },
    {
      "anonymous": false,
      "inputs": [
        {
          "indexed": true,
          "internalType": "uint256",
          "name": "id",
          "type": "uint256"
        },
        {
          "indexed": true,
          "internalType": "address",
          "name": "issuer",
          "type": "address"
        }
      ],
      "name": "DocumentDeleted",
      "type": "event"
    },
    {
      "anonymous": false,
      "inputs": [
        {
          "indexed": true,
          "internalType": "uint256",
          "name": "id",
          "type": "uint256"
        },
        {
          "indexed": true,
          "internalType": "address",
          "name": "issuer",
          "type": "address"
        }
      ],
      "name": "DocumentRecovered",
      "type": "event"
    },
    {
      "anonymous": false,
      "inputs": [
        {
          "indexed": true,
          "internalType": "uint256",
          "name": "id",
          "type": "uint256"
        },
        {
          "indexed": false,
          "internalType": "string",
          "name": "newDocumentName",
          "type": "string"
        },
        {
          "indexed": true,
          "internalType": "address",
          "name": "issuer",
          "type": "address"
        }
      ],
      "name": "DocumentUpdated",
      "type": "event"
    },
    {
      "inputs": [
        {
          "internalType": "string",
          "name": "_documentName",
          "type": "string"
        },
        {
          "internalType": "uint256",
          "name": "_patientID",
          "type": "uint256"
        },
        {
          "internalType": "bytes",
          "name": "_pdfData",
          "type": "bytes"
        },
        {
          "internalType": "address",
          "name": "_issuer",
          "type": "address"
        },
        {
          "internalType": "address[]",
          "name": "_participantPublicKeys",
          "type": "address[]"
        }
      ],
      "name": "createDocument",
      "outputs": [],
      "stateMutability": "nonpayable",
      "type": "function"
    },
    {
      "inputs": [
        {
          "internalType": "uint256",
          "name": "_id",
          "type": "uint256"
        },
        {
          "internalType": "string",
          "name": "_newDocumentName",
          "type": "string"
        },
        {
          "internalType": "bytes",
          "name": "_newPdfData",
          "type": "bytes"
        }
      ],
      "name": "updateDocument",
      "outputs": [],
      "stateMutability": "nonpayable",
      "type": "function"
    },
    {
      "inputs": [
        {
          "internalType": "uint256",
          "name": "_id",
          "type": "uint256"
        }
      ],
      "name": "getDocumentById",
      "outputs": [
        {
          "internalType": "string",
          "name": "documentName",
          "type": "string"
        },
        {
          "internalType": "uint256",
          "name": "patientID",
          "type": "uint256"
        },
        {
          "internalType": "bytes",
          "name": "pdfData",
          "type": "bytes"
        },
        {
          "internalType": "address[]",
          "name": "participantPublicKeys",
          "type": "address[]"
        },
        {
          "internalType": "uint256",
          "name": "createdAt",
          "type": "uint256"
        },
        {
          "internalType": "uint256",
          "name": "changedAt",
          "type": "uint256"
        }
      ],
      "stateMutability": "view",
      "type": "function",
      "constant": true
    },
    {
      "inputs": [],
      "name": "getAllDocuments",
      "outputs": [
        {
          "internalType": "string[]",
          "name": "documentNames",
          "type": "string[]"
        },
        {
          "internalType": "uint256[]",
          "name": "patientIDs",
          "type": "uint256[]"
        },
        {
          "internalType": "bytes[]",
          "name": "pdfDatas",
          "type": "bytes[]"
        },
        {
          "internalType": "address[][]",
          "name": "participantPublicKeysList",
          "type": "address[][]"
        },
        {
          "internalType": "bool[][]",
          "name": "participantStatusList",
          "type": "bool[][]"
        },
        {
          "internalType": "uint256[]",
          "name": "createdAtList",
          "type": "uint256[]"
        },
        {
          "internalType": "uint256[]",
          "name": "changedAtList",
          "type": "uint256[]"
        }
      ],
      "stateMutability": "view",
      "type": "function",
      "constant": true
    },
    {
      "inputs": [
        {
          "internalType": "uint256",
          "name": "_id",
          "type": "uint256"
        }
      ],
      "name": "deleteDocument",
      "outputs": [],
      "stateMutability": "nonpayable",
      "type": "function"
    },
    {
      "inputs": [
        {
          "internalType": "uint256",
          "name": "_id",
          "type": "uint256"
        }
      ],
      "name": "recoverDocument",
      "outputs": [],
      "stateMutability": "nonpayable",
      "type": "function"
    },
    {
      "inputs": [
        {
          "internalType": "uint256",
          "name": "_id",
          "type": "uint256"
        }
      ],
      "name": "signDocument",
      "outputs": [],
      "stateMutability": "nonpayable",
      "type": "function"
    },
    {
      "inputs": [
        {
          "internalType": "string",
          "name": "_userName",
          "type": "string"
        },
        {
          "internalType": "enum Role.UserRole",
          "name": "_userRole",
          "type": "uint8"
        }
      ],
      "name": "addUser",
      "outputs": [],
      "stateMutability": "nonpayable",
      "type": "function"
    },
    {
      "inputs": [
        {
          "internalType": "string",
          "name": "_newUserName",
          "type": "string"
        }
      ],
      "name": "updateUser",
      "outputs": [],
      "stateMutability": "nonpayable",
      "type": "function"
    }
  ],
  "bytecode": "0x6080604052600060015560016002553480156200001b57600080fd5b5060405162003ab838038062003ab88339818101604052810190620000419190620000f3565b80600360006101000a81548173ffffffffffffffffffffffffffffffffffffffff021916908373ffffffffffffffffffffffffffffffffffffffff1602179055505062000125565b600080fd5b600073ffffffffffffffffffffffffffffffffffffffff82169050919050565b6000620000bb826200008e565b9050919050565b620000cd81620000ae565b8114620000d957600080fd5b50565b600081519050620000ed81620000c2565b92915050565b6000602082840312156200010c576200010b62000089565b5b60006200011c84828501620000dc565b91505092915050565b61398380620001356000396000f3fe608060405234801561001057600080fd5b50600436106100935760003560e01c80639fa5f50b116100665780639fa5f50b14610108578063a0fb14971461012c578063a47e4a1214610148578063e0de22dd14610164578063fc8090501461019957610093565b80630b4f12f61461009857806318edda4f146100b457806363a50d50146100d057806390df6cde146100ec575b600080fd5b6100b260048036038101906100ad9190611ea7565b6101b5565b005b6100ce60048036038101906100c99190611f15565b6102d6565b005b6100ea60048036038101906100e59190611fa7565b6103fa565b005b61010660048036038101906101019190612075565b6106b2565b005b61011061098c565b6040516101239796959493929190612754565b60405180910390f35b61014660048036038101906101419190611fa7565b611065565b005b610162600480360381019061015d91906128e8565b61119a565b005b61017e60048036038101906101799190611fa7565b6116a2565b60405161019096959493929190612ac9565b60405180910390f35b6101b360048036038101906101ae9190611fa7565b611a47565b005b600073ffffffffffffffffffffffffffffffffffffffff16600360009054906101000a900473ffffffffffffffffffffffffffffffffffffffff1673ffffffffffffffffffffffffffffffffffffffff1603610246576040517f08c379a000000000000000000000000000000000000000000000000000000000815260040161023d90612b8b565b60405180910390fd5b600360009054906101000a900473ffffffffffffffffffffffffffffffffffffffff1673ffffffffffffffffffffffffffffffffffffffff16630b4f12f6826040518263ffffffff1660e01b81526004016102a19190612bab565b600060405180830381600087803b1580156102bb57600080fd5b505af11580156102cf573d6000803e3d6000fd5b5050505050565b600073ffffffffffffffffffffffffffffffffffffffff16600360009054906101000a900473ffffffffffffffffffffffffffffffffffffffff1673ffffffffffffffffffffffffffffffffffffffff1603610367576040517f08c379a000000000000000000000000000000000000000000000000000000000815260040161035e90612b8b565b60405180910390fd5b600360009054906101000a900473ffffffffffffffffffffffffffffffffffffffff1673ffffffffffffffffffffffffffffffffffffffff16634609613083836040518363ffffffff1660e01b81526004016103c4929190612c44565b600060405180830381600087803b1580156103de57600080fd5b505af11580156103f2573d6000803e3d6000fd5b505050505050565b60008060008381526020019081526020016000209050600081600001541415801561045a575060018081111561043357610432612bcd565b5b8160070160009054906101000a900460ff16600181111561045757610456612bcd565b5b14155b610499576040517f08c379a000000000000000000000000000000000000000000000000000000000815260040161049090612ce6565b60405180910390fd5b61052b8160050180548060200260200160405190810160405280929190818152602001828054801561052057602002820191906000526020600020905b8160009054906101000a900473ffffffffffffffffffffffffffffffffffffffff1673ffffffffffffffffffffffffffffffffffffffff16815260200190600101908083116104d6575b505050505033611bb1565b61056a576040517f08c379a000000000000000000000000000000000000000000000000000000000815260040161056190612d52565b60405180910390fd5b8060060160003373ffffffffffffffffffffffffffffffffffffffff1673ffffffffffffffffffffffffffffffffffffffff16815260200190815260200160002060009054906101000a900460ff16156105f9576040517f08c379a00000000000000000000000000000000000000000000000000000000081526004016105f090612de4565b60405180910390fd5b60018160060160003373ffffffffffffffffffffffffffffffffffffffff1673ffffffffffffffffffffffffffffffffffffffff16815260200190815260200160002060006101000a81548160ff0219169083151502179055504281600901819055503373ffffffffffffffffffffffffffffffffffffffff16827fd2e390b154f40af6139cbf760f6b2ac0ebb91494b17ab4e4b231c92e7c480b31836001016040516106a69190612efd565b60405180910390a35050565b60008060008581526020019081526020016000209050600081600001540361070f576040517f08c379a000000000000000000000000000000000000000000000000000000000815260040161070690612ce6565b60405180910390fd5b6000835111610753576040517f08c379a000000000000000000000000000000000000000000000000000000000815260040161074a90612f91565b60405180910390fd5b6000825111610797576040517f08c379a000000000000000000000000000000000000000000000000000000000815260040161078e90612ffd565b60405180910390fd5b6301400000825111156107df576040517f08c379a00000000000000000000000000000000000000000000000000000000081526004016107d69061308f565b60405180910390fd5b8060040160009054906101000a900473ffffffffffffffffffffffffffffffffffffffff1673ffffffffffffffffffffffffffffffffffffffff163373ffffffffffffffffffffffffffffffffffffffff1614806108cb57506108ca816005018054806020026020016040519081016040528092919081815260200182805480156108bf57602002820191906000526020600020905b8160009054906101000a900473ffffffffffffffffffffffffffffffffffffffff1673ffffffffffffffffffffffffffffffffffffffff1681526020019060010190808311610875575b505050505033611bb1565b5b61090a576040517f08c379a0000000000000000000000000000000000000000000000000000000008152600401610901906130fb565b60405180910390fd5b8281600101908161091b91906132b2565b508181600301908161092d91906133df565b504281600901819055503373ffffffffffffffffffffffffffffffffffffffff16847fd2e390b154f40af6139cbf760f6b2ac0ebb91494b17ab4e4b231c92e7c480b318560405161097e9190612bab565b60405180910390a350505050565b606080606080606080606060015467ffffffffffffffff8111156109b3576109b2611d7c565b5b6040519080825280602002602001820160405280156109e657816020015b60608152602001906001900390816109d15790505b50965060015467ffffffffffffffff811115610a0557610a04611d7c565b5b604051908082528060200260200182016040528015610a335781602001602082028036833780820191505090505b50955060015467ffffffffffffffff811115610a5257610a51611d7c565b5b604051908082528060200260200182016040528015610a8557816020015b6060815260200190600190039081610a705790505b50945060015467ffffffffffffffff811115610aa457610aa3611d7c565b5b604051908082528060200260200182016040528015610ad757816020015b6060815260200190600190039081610ac25790505b50935060015467ffffffffffffffff811115610af657610af5611d7c565b5b604051908082528060200260200182016040528015610b2957816020015b6060815260200190600190039081610b145790505b50925060015467ffffffffffffffff811115610b4857610b47611d7c565b5b604051908082528060200260200182016040528015610b765781602001602082028036833780820191505090505b50915060015467ffffffffffffffff811115610b9557610b94611d7c565b5b604051908082528060200260200182016040528015610bc35781602001602082028036833780820191505090505b5090506000600190505b600154811161105b57600080600083815260200190815260200160002090506000816000015414158015610c365750600180811115610c0f57610c0e612bcd565b5b8160070160009054906101000a900460ff166001811115610c3357610c32612bcd565b5b14155b1561104757806001018054610c4a90612e33565b80601f0160208091040260200160405190810160405280929190818152602001828054610c7690612e33565b8015610cc35780601f10610c9857610100808354040283529160200191610cc3565b820191906000526020600020905b815481529060010190602001808311610ca657829003601f168201915b505050505089600184610cd691906134e0565b81518110610ce757610ce6613514565b5b6020026020010181905250806002015488600184610d0591906134e0565b81518110610d1657610d15613514565b5b602002602001018181525050806003018054610d3190612e33565b80601f0160208091040260200160405190810160405280929190818152602001828054610d5d90612e33565b8015610daa5780601f10610d7f57610100808354040283529160200191610daa565b820191906000526020600020905b815481529060010190602001808311610d8d57829003601f168201915b505050505087600184610dbd91906134e0565b81518110610dce57610dcd613514565b5b602002602001018190525080600501805480602002602001604051908101604052809291908181526020018280548015610e5d57602002820191906000526020600020905b8160009054906101000a900473ffffffffffffffffffffffffffffffffffffffff1673ffffffffffffffffffffffffffffffffffffffff1681526020019060010190808311610e13575b505050505086600184610e7091906134e0565b81518110610e8157610e80613514565b5b60200260200101819052506000816005018054905067ffffffffffffffff811115610eaf57610eae611d7c565b5b604051908082528060200260200182016040528015610edd5781602001602082028036833780820191505090505b50905060005b8260050180549050811015610fb957826006016000846005018381548110610f0e57610f0d613514565b5b9060005260206000200160009054906101000a900473ffffffffffffffffffffffffffffffffffffffff1673ffffffffffffffffffffffffffffffffffffffff1673ffffffffffffffffffffffffffffffffffffffff16815260200190815260200160002060009054906101000a900460ff16828281518110610f9457610f93613514565b5b6020026020010190151590811515815250508080610fb190613543565b915050610ee3565b508086600185610fc991906134e0565b81518110610fda57610fd9613514565b5b6020026020010181905250816008015485600185610ff891906134e0565b8151811061100957611008613514565b5b60200260200101818152505081600901548460018561102891906134e0565b8151811061103957611038613514565b5b602002602001018181525050505b50808061105390613543565b915050610bcd565b5090919293949596565b6000806000838152602001908152602001600020905060008160000154141580156110c5575060018081111561109e5761109d612bcd565b5b8160070160009054906101000a900460ff1660018111156110c2576110c1612bcd565b5b14155b611104576040517f08c379a00000000000000000000000000000000000000000000000000000000081526004016110fb90612ce6565b60405180910390fd5b60018160070160006101000a81548160ff0219169083600181111561112c5761112b612bcd565b5b02179055504281600901819055506001600081548092919061114d9061358b565b91905055503373ffffffffffffffffffffffffffffffffffffffff16827fe882438468e38f1468f0c25384c32d3ab2c92033e67c4e2f5f8740dd8faf6d8360405160405180910390a35050565b60008551116111de576040517f08c379a00000000000000000000000000000000000000000000000000000000081526004016111d590613600565b60405180910390fd5b60008403611221576040517f08c379a00000000000000000000000000000000000000000000000000000000081526004016112189061366c565b60405180910390fd5b6000835111611265576040517f08c379a000000000000000000000000000000000000000000000000000000000815260040161125c906136d8565b60405180910390fd5b6301400000835111156112ad576040517f08c379a00000000000000000000000000000000000000000000000000000000081526004016112a490613744565b60405180910390fd5b6112b683611c38565b6112f5576040517f08c379a00000000000000000000000000000000000000000000000000000000081526004016112ec906137b0565b60405180910390fd5b6000815111611339576040517f08c379a000000000000000000000000000000000000000000000000000000000815260040161133090613842565b60405180910390fd5b600073ffffffffffffffffffffffffffffffffffffffff16600360009054906101000a900473ffffffffffffffffffffffffffffffffffffffff1673ffffffffffffffffffffffffffffffffffffffff16036113ca576040517f08c379a00000000000000000000000000000000000000000000000000000000081526004016113c190612b8b565b60405180910390fd5b600360009054906101000a900473ffffffffffffffffffffffffffffffffffffffff1673ffffffffffffffffffffffffffffffffffffffff1663b25324c66040518163ffffffff1660e01b8152600401602060405180830381865afa158015611437573d6000803e3d6000fd5b505050506040513d601f19601f8201168201806040525081019061145b919061388e565b61149a576040517f08c379a000000000000000000000000000000000000000000000000000000000815260040161149190613842565b60405180910390fd5b6000806000600254815260200190815260200160002090506002548160000181905550858160010190816114ce91906132b2565b50848160020181905550838160030190816114e991906133df565b50338160040160006101000a81548173ffffffffffffffffffffffffffffffffffffffff021916908373ffffffffffffffffffffffffffffffffffffffff16021790555081816005019080519060200190611545929190611ca6565b5060005b82518110156115d957600082600601600085848151811061156d5761156c613514565b5b602002602001015173ffffffffffffffffffffffffffffffffffffffff1673ffffffffffffffffffffffffffffffffffffffff16815260200190815260200160002060006101000a81548160ff02191690831515021790555080806115d190613543565b915050611549565b5060008160070160006101000a81548160ff0219169083600181111561160257611601612bcd565b5b02179055504281600801819055504281600901819055506001600081548092919061162c90613543565b91905055508273ffffffffffffffffffffffffffffffffffffffff166002547f5f0a17619d345853660d0544e8bab0797520ac2c4e6164ea0209a662418ddbfe8860405161167a9190612bab565b60405180910390a36002600081548092919061169590613543565b9190505550505050505050565b6060600060608060008060008060008981526020019081526020016000209050600081600001541415801561170c57506001808111156116e5576116e4612bcd565b5b8160070160009054906101000a900460ff16600181111561170957611708612bcd565b5b14155b61174b576040517f08c379a000000000000000000000000000000000000000000000000000000000815260040161174290612ce6565b60405180910390fd5b8060040160009054906101000a900473ffffffffffffffffffffffffffffffffffffffff1673ffffffffffffffffffffffffffffffffffffffff163373ffffffffffffffffffffffffffffffffffffffff16148061183757506118368160050180548060200260200160405190810160405280929190818152602001828054801561182b57602002820191906000526020600020905b8160009054906101000a900473ffffffffffffffffffffffffffffffffffffffff1673ffffffffffffffffffffffffffffffffffffffff16815260200190600101908083116117e1575b505050505033611bb1565b5b611876576040517f08c379a000000000000000000000000000000000000000000000000000000000815260040161186d906130fb565b60405180910390fd5b80600101816002015482600301836005018460080154856009015485805461189d90612e33565b80601f01602080910402602001604051908101604052809291908181526020018280546118c990612e33565b80156119165780601f106118eb57610100808354040283529160200191611916565b820191906000526020600020905b8154815290600101906020018083116118f957829003601f168201915b5050505050955083805461192990612e33565b80601f016020809104026020016040519081016040528092919081815260200182805461195590612e33565b80156119a25780601f10611977576101008083540402835291602001916119a2565b820191906000526020600020905b81548152906001019060200180831161198557829003601f168201915b5050505050935082805480602002602001604051908101604052809291908181526020018280548015611a2a57602002820191906000526020600020905b8160009054906101000a900473ffffffffffffffffffffffffffffffffffffffff1673ffffffffffffffffffffffffffffffffffffffff16815260200190600101908083116119e0575b505050505092509650965096509650965096505091939550919395565b600080600083815260200190815260200160002090506000816000015403611aa4576040517f08c379a0000000000000000000000000000000000000000000000000000000008152600401611a9b90612ce6565b60405180910390fd5b600180811115611ab757611ab6612bcd565b5b8160070160009054906101000a900460ff166001811115611adb57611ada612bcd565b5b14611b1b576040517f08c379a0000000000000000000000000000000000000000000000000000000008152600401611b129061392d565b60405180910390fd5b60008160070160006101000a81548160ff02191690836001811115611b4357611b42612bcd565b5b021790555042816009018190555060016000815480929190611b6490613543565b91905055503373ffffffffffffffffffffffffffffffffffffffff16827fd9b007f2167e2719566f57a1d1b7edde86107960b97c1220fbece41c5d65b74a60405160405180910390a35050565b600080600090505b8351811015611c2c578273ffffffffffffffffffffffffffffffffffffffff16848281518110611bec57611beb613514565b5b602002602001015173ffffffffffffffffffffffffffffffffffffffff1603611c19576001915050611c32565b8080611c2490613543565b915050611bb9565b50600090505b92915050565b60006004825110611c9c57600060208301519050632550444660e01b7bffffffffffffffffffffffffffffffffffffffffffffffffffffffff1916817bffffffffffffffffffffffffffffffffffffffffffffffffffffffff191614915050611ca1565b600090505b919050565b828054828255906000526020600020908101928215611d1f579160200282015b82811115611d1e5782518260006101000a81548173ffffffffffffffffffffffffffffffffffffffff021916908373ffffffffffffffffffffffffffffffffffffffff16021790555091602001919060010190611cc6565b5b509050611d2c9190611d30565b5090565b5b80821115611d49576000816000905550600101611d31565b5090565b6000604051905090565b600080fd5b600080fd5b600080fd5b600080fd5b6000601f19601f8301169050919050565b7f4e487b7100000000000000000000000000000000000000000000000000000000600052604160045260246000fd5b611db482611d6b565b810181811067ffffffffffffffff82111715611dd357611dd2611d7c565b5b80604052505050565b6000611de6611d4d565b9050611df28282611dab565b919050565b600067ffffffffffffffff821115611e1257611e11611d7c565b5b611e1b82611d6b565b9050602081019050919050565b82818337600083830152505050565b6000611e4a611e4584611df7565b611ddc565b905082815260208101848484011115611e6657611e65611d66565b5b611e71848285611e28565b509392505050565b600082601f830112611e8e57611e8d611d61565b5b8135611e9e848260208601611e37565b91505092915050565b600060208284031215611ebd57611ebc611d57565b5b600082013567ffffffffffffffff811115611edb57611eda611d5c565b5b611ee784828501611e79565b91505092915050565b60038110611efd57600080fd5b50565b600081359050611f0f81611ef0565b92915050565b60008060408385031215611f2c57611f2b611d57565b5b600083013567ffffffffffffffff811115611f4a57611f49611d5c565b5b611f5685828601611e79565b9250506020611f6785828601611f00565b9150509250929050565b6000819050919050565b611f8481611f71565b8114611f8f57600080fd5b50565b600081359050611fa181611f7b565b92915050565b600060208284031215611fbd57611fbc611d57565b5b6000611fcb84828501611f92565b91505092915050565b600067ffffffffffffffff821115611fef57611fee611d7c565b5b611ff882611d6b565b9050602081019050919050565b600061201861201384611fd4565b611ddc565b90508281526020810184848401111561203457612033611d66565b5b61203f848285611e28565b509392505050565b600082601f83011261205c5761205b611d61565b5b813561206c848260208601612005565b91505092915050565b60008060006060848603121561208e5761208d611d57565b5b600061209c86828701611f92565b935050602084013567ffffffffffffffff8111156120bd576120bc611d5c565b5b6120c986828701611e79565b925050604084013567ffffffffffffffff8111156120ea576120e9611d5c565b5b6120f686828701612047565b9150509250925092565b600081519050919050565b600082825260208201905092915050565b6000819050602082019050919050565b600081519050919050565b600082825260208201905092915050565b60005b8381101561216657808201518184015260208101905061214b565b60008484015250505050565b600061217d8261212c565b6121878185612137565b9350612197818560208601612148565b6121a081611d6b565b840191505092915050565b60006121b78383612172565b905092915050565b6000602082019050919050565b60006121d782612100565b6121e1818561210b565b9350836020820285016121f38561211c565b8060005b8581101561222f578484038952815161221085826121ab565b945061221b836121bf565b925060208a019950506001810190506121f7565b50829750879550505050505092915050565b600081519050919050565b600082825260208201905092915050565b6000819050602082019050919050565b61227681611f71565b82525050565b6000612288838361226d565b60208301905092915050565b6000602082019050919050565b60006122ac82612241565b6122b6818561224c565b93506122c18361225d565b8060005b838110156122f25781516122d9888261227c565b97506122e483612294565b9250506001810190506122c5565b5085935050505092915050565b600081519050919050565b600082825260208201905092915050565b6000819050602082019050919050565b600081519050919050565b600082825260208201905092915050565b60006123528261232b565b61235c8185612336565b935061236c818560208601612148565b61237581611d6b565b840191505092915050565b600061238c8383612347565b905092915050565b6000602082019050919050565b60006123ac826122ff565b6123b6818561230a565b9350836020820285016123c88561231b565b8060005b8581101561240457848403895281516123e58582612380565b94506123f083612394565b925060208a019950506001810190506123cc565b50829750879550505050505092915050565b600081519050919050565b600082825260208201905092915050565b6000819050602082019050919050565b600081519050919050565b600082825260208201905092915050565b6000819050602082019050919050565b600073ffffffffffffffffffffffffffffffffffffffff82169050919050565b60006124998261246e565b9050919050565b6124a98161248e565b82525050565b60006124bb83836124a0565b60208301905092915050565b6000602082019050919050565b60006124df82612442565b6124e9818561244d565b93506124f48361245e565b8060005b8381101561252557815161250c88826124af565b9750612517836124c7565b9250506001810190506124f8565b5085935050505092915050565b600061253e83836124d4565b905092915050565b6000602082019050919050565b600061255e82612416565b6125688185612421565b93508360208202850161257a85612432565b8060005b858110156125b657848403895281516125978582612532565b94506125a283612546565b925060208a0199505060018101905061257e565b50829750879550505050505092915050565b600081519050919050565b600082825260208201905092915050565b6000819050602082019050919050565b600081519050919050565b600082825260208201905092915050565b6000819050602082019050919050565b60008115159050919050565b61263581612620565b82525050565b6000612647838361262c565b60208301905092915050565b6000602082019050919050565b600061266b826125f4565b61267581856125ff565b935061268083612610565b8060005b838110156126b1578151612698888261263b565b97506126a383612653565b925050600181019050612684565b5085935050505092915050565b60006126ca8383612660565b905092915050565b6000602082019050919050565b60006126ea826125c8565b6126f481856125d3565b935083602082028501612706856125e4565b8060005b85811015612742578484038952815161272385826126be565b945061272e836126d2565b925060208a0199505060018101905061270a565b50829750879550505050505092915050565b600060e082019050818103600083015261276e818a6121cc565b9050818103602083015261278281896122a1565b9050818103604083015261279681886123a1565b905081810360608301526127aa8187612553565b905081810360808301526127be81866126df565b905081810360a08301526127d281856122a1565b905081810360c08301526127e681846122a1565b905098975050505050505050565b6127fd8161248e565b811461280857600080fd5b50565b60008135905061281a816127f4565b92915050565b600067ffffffffffffffff82111561283b5761283a611d7c565b5b602082029050602081019050919050565b600080fd5b600061286461285f84612820565b611ddc565b905080838252602082019050602084028301858111156128875761288661284c565b5b835b818110156128b0578061289c888261280b565b845260208401935050602081019050612889565b5050509392505050565b600082601f8301126128cf576128ce611d61565b5b81356128df848260208601612851565b91505092915050565b600080600080600060a0868803121561290457612903611d57565b5b600086013567ffffffffffffffff81111561292257612921611d5c565b5b61292e88828901611e79565b955050602061293f88828901611f92565b945050604086013567ffffffffffffffff8111156129605761295f611d5c565b5b61296c88828901612047565b935050606061297d8882890161280b565b925050608086013567ffffffffffffffff81111561299e5761299d611d5c565b5b6129aa888289016128ba565b9150509295509295909350565b600082825260208201905092915050565b60006129d38261212c565b6129dd81856129b7565b93506129ed818560208601612148565b6129f681611d6b565b840191505092915050565b612a0a81611f71565b82525050565b600082825260208201905092915050565b6000612a2c8261232b565b612a368185612a10565b9350612a46818560208601612148565b612a4f81611d6b565b840191505092915050565b600082825260208201905092915050565b6000612a7682612442565b612a808185612a5a565b9350612a8b8361245e565b8060005b83811015612abc578151612aa388826124af565b9750612aae836124c7565b925050600181019050612a8f565b5085935050505092915050565b600060c0820190508181036000830152612ae381896129c8565b9050612af26020830188612a01565b8181036040830152612b048187612a21565b90508181036060830152612b188186612a6b565b9050612b276080830185612a01565b612b3460a0830184612a01565b979650505050505050565b7f5573657220636f6e7472616374206e6f74207365740000000000000000000000600082015250565b6000612b756015836129b7565b9150612b8082612b3f565b602082019050919050565b60006020820190508181036000830152612ba481612b68565b9050919050565b60006020820190508181036000830152612bc581846129c8565b905092915050565b7f4e487b7100000000000000000000000000000000000000000000000000000000600052602160045260246000fd5b60038110612c0d57612c0c612bcd565b5b50565b6000819050612c1e82612bfc565b919050565b6000612c2e82612c10565b9050919050565b612c3e81612c23565b82525050565b60006040820190508181036000830152612c5e81856129c8565b9050612c6d6020830184612c35565b9392505050565b7f446f63756d656e742077697468207468697320494420646f6573206e6f74206560008201527f7869737400000000000000000000000000000000000000000000000000000000602082015250565b6000612cd06024836129b7565b9150612cdb82612c74565b604082019050919050565b60006020820190508181036000830152612cff81612cc3565b9050919050565b7f556e617574686f72697a6564207369676e657200000000000000000000000000600082015250565b6000612d3c6013836129b7565b9150612d4782612d06565b602082019050919050565b60006020820190508181036000830152612d6b81612d2f565b9050919050565b7f446f63756d656e7420616c7265616479207369676e656420627920746869732060008201527f7061727469636970616e74000000000000000000000000000000000000000000602082015250565b6000612dce602b836129b7565b9150612dd982612d72565b604082019050919050565b60006020820190508181036000830152612dfd81612dc1565b9050919050565b7f4e487b7100000000000000000000000000000000000000000000000000000000600052602260045260246000fd5b60006002820490506001821680612e4b57607f821691505b602082108103612e5e57612e5d612e04565b5b50919050565b60008190508160005260206000209050919050565b60008154612e8681612e33565b612e9081866129b7565b94506001821660008114612eab5760018114612ec157612ef4565b60ff198316865281151560200286019350612ef4565b612eca85612e64565b60005b83811015612eec57815481890152600182019150602081019050612ecd565b808801955050505b50505092915050565b60006020820190508181036000830152612f178184612e79565b905092915050565b7f4e657720646f63756d656e74206e616d65206d757374206e6f7420626520656d60008201527f7074790000000000000000000000000000000000000000000000000000000000602082015250565b6000612f7b6023836129b7565b9150612f8682612f1f565b604082019050919050565b60006020820190508181036000830152612faa81612f6e565b9050919050565b7f4e6577205044462064617461206d757374206e6f7420626520656d7074790000600082015250565b6000612fe7601e836129b7565b9150612ff282612fb1565b602082019050919050565b6000602082019050818103600083015261301681612fda565b9050919050565b7f4e65772050444620646174612065786365656473207468652073697a65206c6960008201527f6d69740000000000000000000000000000000000000000000000000000000000602082015250565b60006130796023836129b7565b91506130848261301d565b604082019050919050565b600060208201905081810360008301526130a88161306c565b9050919050565b7f556e617574686f72697a65642069737375657200000000000000000000000000600082015250565b60006130e56013836129b7565b91506130f0826130af565b602082019050919050565b60006020820190508181036000830152613114816130d8565b9050919050565b60006020601f8301049050919050565b600082821b905092915050565b6000600883026131687fffffffffffffffffffffffffffffffffffffffffffffffffffffffffffffffff8261312b565b613172868361312b565b95508019841693508086168417925050509392505050565b6000819050919050565b60006131af6131aa6131a584611f71565b61318a565b611f71565b9050919050565b6000819050919050565b6131c983613194565b6131dd6131d5826131b6565b848454613138565b825550505050565b600090565b6131f26131e5565b6131fd8184846131c0565b505050565b5b81811015613221576132166000826131ea565b600181019050613203565b5050565b601f8211156132665761323781612e64565b6132408461311b565b8101602085101561324f578190505b61326361325b8561311b565b830182613202565b50505b505050565b600082821c905092915050565b60006132896000198460080261326b565b1980831691505092915050565b60006132a28383613278565b9150826002028217905092915050565b6132bb8261212c565b67ffffffffffffffff8111156132d4576132d3611d7c565b5b6132de8254612e33565b6132e9828285613225565b600060209050601f83116001811461331c576000841561330a578287015190505b6133148582613296565b86555061337c565b601f19841661332a86612e64565b60005b828110156133525784890151825560018201915060208501945060208101905061332d565b8683101561336f578489015161336b601f891682613278565b8355505b6001600288020188555050505b505050505050565b60008190508160005260206000209050919050565b601f8211156133da576133ab81613384565b6133b48461311b565b810160208510156133c3578190505b6133d76133cf8561311b565b830182613202565b50505b505050565b6133e88261232b565b67ffffffffffffffff81111561340157613400611d7c565b5b61340b8254612e33565b613416828285613399565b600060209050601f8311600181146134495760008415613437578287015190505b6134418582613296565b8655506134a9565b601f19841661345786613384565b60005b8281101561347f5784890151825560018201915060208501945060208101905061345a565b8683101561349c5784890151613498601f891682613278565b8355505b6001600288020188555050505b505050505050565b7f4e487b7100000000000000000000000000000000000000000000000000000000600052601160045260246000fd5b60006134eb82611f71565b91506134f683611f71565b925082820390508181111561350e5761350d6134b1565b5b92915050565b7f4e487b7100000000000000000000000000000000000000000000000000000000600052603260045260246000fd5b600061354e82611f71565b91507fffffffffffffffffffffffffffffffffffffffffffffffffffffffffffffffff82036135805761357f6134b1565b5b600182019050919050565b600061359682611f71565b9150600082036135a9576135a86134b1565b5b600182039050919050565b7f446f63756d656e74206e616d65206d757374206e6f7420626520656d70747900600082015250565b60006135ea601f836129b7565b91506135f5826135b4565b602082019050919050565b60006020820190508181036000830152613619816135dd565b9050919050565b7f50617469656e74204944206d7573742062652073706563696669656400000000600082015250565b6000613656601c836129b7565b915061366182613620565b602082019050919050565b6000602082019050818103600083015261368581613649565b9050919050565b7f5044462064617461206d757374206e6f7420626520656d707479000000000000600082015250565b60006136c2601a836129b7565b91506136cd8261368c565b602082019050919050565b600060208201905081810360008301526136f1816136b5565b9050919050565b7f50444620646174612065786365656473207468652073697a65206c696d697400600082015250565b600061372e601f836129b7565b9150613739826136f8565b602082019050919050565b6000602082019050818103600083015261375d81613721565b9050919050565b7f496e76616c696420504446206461746100000000000000000000000000000000600082015250565b600061379a6010836129b7565b91506137a582613764565b602082019050919050565b600060208201905081810360008301526137c98161378d565b9050919050565b7f5061727469636970616e74207075626c6963206b657973206d7573742062652060008201527f7370656369666965640000000000000000000000000000000000000000000000602082015250565b600061382c6029836129b7565b9150613837826137d0565b604082019050919050565b6000602082019050818103600083015261385b8161381f565b9050919050565b61386b81612620565b811461387657600080fd5b50565b60008151905061388881613862565b92915050565b6000602082840312156138a4576138a3611d57565b5b60006138b284828501613879565b91505092915050565b7f446f63756d656e7420776974682074686973204944206973206e6f742064656c60008201527f6574656400000000000000000000000000000000000000000000000000000000602082015250565b60006139176024836129b7565b9150613922826138bb565b604082019050919050565b600060208201905081810360008301526139468161390a565b905091905056fea2646970667358221220a14269ecee5b17c43b398acc9812930c4c9a1fcbb2572d96afa7811e72d79d4a64736f6c63430008110033",
  "immutableReferences": {},
  "source": "// SPDX-License-Identifier: UNLICENSED\npragma solidity ^0.8.17;\n\nimport \"./Role.sol\"; \nimport \"./User.sol\"; \n\ncontract DocumentState {\n    uint256 constant MAX_PDF_SIZE = 20 * 1024 * 1024; // 20 MB limit\n    bytes4 constant PDF_SIGNATURE = 0x25504446; // Hex representation of \"%PDF\"\n\n    enum RecordState {\n        Active,\n        Deleted\n    }\n\n    struct Document {\n        // Unique identifier for the chat.\n        uint256 id;\n        // Non-unique name for the chat.\n        string documentName;\n        // id of the patient.\n        uint256 patientID;\n        // The PDF\n        bytes pdfData;\n        address issuer;\n        // The participants to the chat, represented by their public key.\n        address[] participantPublicKeys;\n        mapping(address => bool) participantStatus;\n\n        RecordState recordState;\n        uint256 createdAt;\n        uint256 changedAt;\n    }\n\n    event DocumentCreated(uint256 indexed id, string documentName, address indexed issuer);\n    event DocumentUpdated(uint256 indexed id, string newDocumentName, address indexed issuer);\n    event DocumentDeleted(uint256 indexed id, address indexed issuer);\n    event DocumentRecovered(uint256 indexed id, address indexed issuer);\n\n    mapping(uint256 => Document) private documents;\n    uint256 private documentCount = 0;\n    uint256 private currentID = 1;\n\n    User private usersContract;\n\n    constructor(address _usersContractAddress) {\n        usersContract = User(_usersContractAddress);\n    }\n\n    function isPDF(bytes memory data) internal pure returns (bool) {\n        if (data.length >= 4) {\n            bytes4 signature;\n            assembly {\n                signature := mload(add(data, 32))\n            }\n            return signature == PDF_SIGNATURE;\n        }\n        return false;\n    }\n\n    function createDocument(\n        string memory _documentName,\n        uint256 _patientID,\n        bytes memory _pdfData,\n        address _issuer,\n        address[] memory _participantPublicKeys\n    ) public {\n        require(bytes(_documentName).length > 0, \"Document name must not be empty\");\n\n        require(_patientID != 0, \"Patient ID must be specified\");\n\n        require(_pdfData.length > 0, \"PDF data must not be empty\");\n\n        require(_pdfData.length <= MAX_PDF_SIZE, \"PDF data exceeds the size limit\");\n\n        require(isPDF(_pdfData), \"Invalid PDF data\");\n\n        require(_participantPublicKeys.length > 0, \"Participant public keys must be specified\");\n\n        require(address(usersContract) != address(0), \"User contract not set\");\n\n        require(usersContract.hasMedicalPersonalRole(), \"Participant public keys must be specified\");\n\n        Document storage newDocument = documents[currentID];\n        newDocument.id = currentID;\n        newDocument.documentName = _documentName;\n        newDocument.patientID = _patientID;\n        newDocument.pdfData = _pdfData;\n        newDocument.issuer = msg.sender;\n        newDocument.participantPublicKeys = _participantPublicKeys;\n\n        for (uint256 i = 0; i < _participantPublicKeys.length; i++) {\n            newDocument.participantStatus[_participantPublicKeys[i]] = false;\n        }\n\n        newDocument.recordState = RecordState.Active;\n        newDocument.createdAt = block.timestamp;\n        newDocument.changedAt = block.timestamp;\n\n        documentCount++;\n        emit DocumentCreated(currentID, _documentName, _issuer);\n        currentID++;\n    }\n\n    function updateDocument( uint256 _id, string memory _newDocumentName, bytes memory _newPdfData) public {\n        Document storage existingDocument = documents[_id];\n\n        require(existingDocument.id != 0, \"Document with this ID does not exist\");\n\n        require(bytes(_newDocumentName).length > 0, \"New document name must not be empty\");\n\n        require(_newPdfData.length > 0, \"New PDF data must not be empty\");\n\n        require(_newPdfData.length <= MAX_PDF_SIZE, \"New PDF data exceeds the size limit\");\n\n        require(msg.sender == existingDocument.issuer || isInPublicAddressList( existingDocument.participantPublicKeys, msg.sender), \"Unauthorized issuer\");\n\n        existingDocument.documentName = _newDocumentName;\n        existingDocument.pdfData = _newPdfData;\n        existingDocument.changedAt = block.timestamp;\n        emit DocumentUpdated(_id, _newDocumentName, msg.sender);\n    }\n\n    function isInPublicAddressList(address[] memory participantPublicKeys, address _address) internal pure returns (bool) {\n        for (uint256 i = 0; i < participantPublicKeys.length; i++) {\n            if (participantPublicKeys[i] == _address) {\n                return true; \n            }\n        }\n        return false;\n    }\n\n    function getDocumentById(uint256 _id) public view returns (\n        string memory documentName,\n        uint256 patientID,\n        bytes memory pdfData,\n        address[] memory participantPublicKeys,\n        uint256 createdAt,\n        uint256 changedAt\n    ) {\n        Document storage retrievedDocument = documents[_id];\n\n        require(retrievedDocument.id != 0 && retrievedDocument.recordState != RecordState.Deleted, \"Document with this ID does not exist\");\n        require(msg.sender == retrievedDocument.issuer || isInPublicAddressList( retrievedDocument.participantPublicKeys, msg.sender), \"Unauthorized issuer\");\n\n        return \n        (\n            retrievedDocument.documentName,\n            retrievedDocument.patientID,\n            retrievedDocument.pdfData,\n            retrievedDocument.participantPublicKeys,\n            retrievedDocument.createdAt,\n            retrievedDocument.changedAt\n        );\n    }\n\n    function getAllDocuments() public view returns (\n        string[] memory documentNames,\n        uint256[] memory patientIDs,\n        bytes[] memory pdfDatas,\n        address[][] memory participantPublicKeysList,\n        bool[][] memory participantStatusList,\n        uint256[] memory createdAtList,\n        uint256[] memory changedAtList\n    ) {\n\n    documentNames = new string[](documentCount);\n    patientIDs = new uint256[](documentCount);\n    pdfDatas = new bytes[](documentCount);\n    participantPublicKeysList = new address[][](documentCount);\n    participantStatusList = new bool[][](documentCount);\n    createdAtList = new uint256[](documentCount);\n    changedAtList = new uint256[](documentCount);\n\n    for (uint256 i = 1; i <= documentCount; i++) {\n        Document storage currentDocument = documents[i];\n\n        if (currentDocument.id != 0 && currentDocument.recordState != RecordState.Deleted) {\n            documentNames[i-1] = currentDocument.documentName;\n            patientIDs[i-1] = currentDocument.patientID;\n            pdfDatas[i-1] = currentDocument.pdfData;\n            participantPublicKeysList[i-1] = currentDocument.participantPublicKeys;\n\n            bool[] memory participantStatus = new bool[](currentDocument.participantPublicKeys.length);\n            for (uint256 j = 0; j < currentDocument.participantPublicKeys.length; j++) {\n                participantStatus[j] = currentDocument.participantStatus[currentDocument.participantPublicKeys[j]];\n            }\n            participantStatusList[i-1] = participantStatus;\n\n            createdAtList[i-1] = currentDocument.createdAt;\n            changedAtList[i-1] = currentDocument.changedAt;\n        }\n    }\n\n    return (documentNames, patientIDs, pdfDatas, participantPublicKeysList, participantStatusList, createdAtList, changedAtList);\n    }\n\n    function deleteDocument(uint256 _id) public {\n        Document storage existingDocument = documents[_id];\n\n        require(existingDocument.id != 0 && existingDocument.recordState != RecordState.Deleted, \"Document with this ID does not exist\");\n\n        existingDocument.recordState = RecordState.Deleted;\n        existingDocument.changedAt = block.timestamp;\n        documentCount--;\n        emit DocumentDeleted(_id, msg.sender);\n    }\n\n    function recoverDocument(uint256 _id) public {\n        Document storage existingDocument = documents[_id];\n\n        require(existingDocument.id != 0, \"Document with this ID does not exist\");\n\n        require(existingDocument.recordState == RecordState.Deleted, \"Document with this ID is not deleted\");\n\n        existingDocument.recordState = RecordState.Active;\n        existingDocument.changedAt = block.timestamp;\n        documentCount++;\n        emit DocumentRecovered(_id, msg.sender);\n    }\n\n    function signDocument(uint256 _id) public {\n        Document storage documentToSign = documents[_id];\n\n        require(documentToSign.id != 0 && documentToSign.recordState != RecordState.Deleted, \"Document with this ID does not exist\");\n\n        require(isInPublicAddressList(documentToSign.participantPublicKeys, msg.sender), \"Unauthorized signer\");\n\n        require(!documentToSign.participantStatus[msg.sender], \"Document already signed by this participant\");\n\n        documentToSign.participantStatus[msg.sender] = true;\n        documentToSign.changedAt = block.timestamp;\n\n        emit DocumentUpdated(_id, documentToSign.documentName, msg.sender);\n    }\n\n    function addUser(\n        string memory _userName,\n        Role.UserRole _userRole\n    ) public {\n        require(address(usersContract) != address(0), \"User contract not set\");\n\n        usersContract.createUser(_userName, _userRole);\n    }\n\n    function updateUser(\n        string memory _newUserName    \n    ) public {\n        require(address(usersContract) != address(0), \"User contract not set\");\n\n        usersContract.updateUser(_newUserName);\n    }\n}\n\n",
  "sourcePath": "C:\\Users\\Utilizador\\OneDrive\\Documentos\\GitHub\\Web3DocumentsProj\\truffle\\contracts\\DocumentState.sol",
  "compiler": {
    "name": "solc",
    "version": "0.8.17+commit.8df45f5f.Emscripten.clang"
  },
  "schemaVersion": "3.4.16",
  "updatedAt": "2024-01-16T21:31:39.113Z",
  "networkType": "ethereum",
  "devdoc": {
    "kind": "dev",
    "methods": {},
    "version": 1
  },
  "userdoc": {
    "kind": "user",
    "methods": {},
    "version": 1
  }
}