{
  "contractName": "Role",
  "abi": [
    {
      "inputs": [],
      "stateMutability": "nonpayable",
      "type": "constructor"
    },
    {
      "inputs": [
        {
          "internalType": "address",
          "name": "_userAddress",
          "type": "address"
        }
      ],
      "name": "grantMedicalPersonalRole",
      "outputs": [],
      "stateMutability": "nonpayable",
      "type": "function"
    },
    {
      "inputs": [
        {
          "internalType": "address",
          "name": "_userAddress",
          "type": "address"
        }
      ],
      "name": "grantPatientRole",
      "outputs": [],
      "stateMutability": "nonpayable",
      "type": "function"
    },
    {
      "inputs": [
        {
          "internalType": "address",
          "name": "_userAddress",
          "type": "address"
        }
      ],
      "name": "grantNoneRole",
      "outputs": [],
      "stateMutability": "nonpayable",
      "type": "function"
    },
    {
      "inputs": [
        {
          "internalType": "address",
          "name": "_userAddress",
          "type": "address"
        }
      ],
      "name": "getPacientRole",
      "outputs": [
        {
          "internalType": "enum Role.UserRole",
          "name": "",
          "type": "uint8"
        }
      ],
      "stateMutability": "view",
      "type": "function",
      "constant": true
    },
    {
      "inputs": [],
      "name": "canCreatePatientRecord",
      "outputs": [
        {
          "internalType": "bool",
          "name": "",
          "type": "bool"
        }
      ],
      "stateMutability": "view",
      "type": "function",
      "constant": true
    },
    {
      "inputs": [],
      "name": "canAccessPatientRecord",
      "outputs": [
        {
          "internalType": "bool",
          "name": "",
          "type": "bool"
        }
      ],
      "stateMutability": "view",
      "type": "function",
      "constant": true
    }
  ],
  "bytecode": "0x608060405234801561001057600080fd5b506040518060600160405280600015158152602001600015158152602001600015158152506001600080600281111561004c5761004b610251565b5b600281111561005e5761005d610251565b5b815260200190815260200160002060008201518160000160006101000a81548160ff02191690831515021790555060208201518160000160016101000a81548160ff02191690831515021790555060408201518160000160026101000a81548160ff021916908315150217905550905050604051806060016040528060001515815260200160001515815260200160011515815250600160006001600281111561010b5761010a610251565b5b600281111561011d5761011c610251565b5b815260200190815260200160002060008201518160000160006101000a81548160ff02191690831515021790555060208201518160000160016101000a81548160ff02191690831515021790555060408201518160000160026101000a81548160ff021916908315150217905550905050604051806060016040528060011515815260200160011515815260200160001515815250600160006002808111156101c9576101c8610251565b5b60028111156101db576101da610251565b5b815260200190815260200160002060008201518160000160006101000a81548160ff02191690831515021790555060208201518160000160016101000a81548160ff02191690831515021790555060408201518160000160026101000a81548160ff021916908315150217905550905050610280565b7f4e487b7100000000000000000000000000000000000000000000000000000000600052602160045260246000fd5b61057c8061028f6000396000f3fe608060405234801561001057600080fd5b50600436106100625760003560e01c80633e0ac4cb14610067578063446421e3146100855780637f2df8b0146100a1578063c0e72b4c146100bd578063ca5734be146100ed578063e994dd4a1461010b575b600080fd5b61006f610127565b60405161007c9190610409565b60405180910390f35b61009f600480360381019061009a9190610487565b6101c1565b005b6100bb60048036038101906100b69190610487565b61022b565b005b6100d760048036038101906100d29190610487565b610295565b6040516100e4919061052b565b60405180910390f35b6100f56102ea565b6040516101029190610409565b60405180910390f35b61012560048036038101906101209190610487565b610384565b005b6000600160008060003373ffffffffffffffffffffffffffffffffffffffff1673ffffffffffffffffffffffffffffffffffffffff16815260200190815260200160002060009054906101000a900460ff16600281111561018b5761018a6104b4565b5b600281111561019d5761019c6104b4565b5b815260200190815260200160002060000160009054906101000a900460ff16905090565b60008060008373ffffffffffffffffffffffffffffffffffffffff1673ffffffffffffffffffffffffffffffffffffffff16815260200190815260200160002060006101000a81548160ff02191690836002811115610223576102226104b4565b5b021790555050565b60016000808373ffffffffffffffffffffffffffffffffffffffff1673ffffffffffffffffffffffffffffffffffffffff16815260200190815260200160002060006101000a81548160ff0219169083600281111561028d5761028c6104b4565b5b021790555050565b60008060008373ffffffffffffffffffffffffffffffffffffffff1673ffffffffffffffffffffffffffffffffffffffff16815260200190815260200160002060009054906101000a900460ff169050919050565b6000600160008060003373ffffffffffffffffffffffffffffffffffffffff1673ffffffffffffffffffffffffffffffffffffffff16815260200190815260200160002060009054906101000a900460ff16600281111561034e5761034d6104b4565b5b60028111156103605761035f6104b4565b5b815260200190815260200160002060000160019054906101000a900460ff16905090565b60026000808373ffffffffffffffffffffffffffffffffffffffff1673ffffffffffffffffffffffffffffffffffffffff16815260200190815260200160002060006101000a81548160ff021916908360028111156103e6576103e56104b4565b5b021790555050565b60008115159050919050565b610403816103ee565b82525050565b600060208201905061041e60008301846103fa565b92915050565b600080fd5b600073ffffffffffffffffffffffffffffffffffffffff82169050919050565b600061045482610429565b9050919050565b61046481610449565b811461046f57600080fd5b50565b6000813590506104818161045b565b92915050565b60006020828403121561049d5761049c610424565b5b60006104ab84828501610472565b91505092915050565b7f4e487b7100000000000000000000000000000000000000000000000000000000600052602160045260246000fd5b600381106104f4576104f36104b4565b5b50565b6000819050610505826104e3565b919050565b6000610515826104f7565b9050919050565b6105258161050a565b82525050565b6000602082019050610540600083018461051c565b9291505056fea2646970667358221220e9e693e8e624663276b8dc0fa6bf8290f4e67bc17ce8890f24c8b6dfaf1d1f0964736f6c63430008110033",
  "immutableReferences": {},
  "source": "// SPDX-License-Identifier: UNLICENSED\r\npragma solidity ^0.8.17;\r\n\r\ncontract Role {\r\n    enum UserRole { None, Patient, MedicalPersonal }\r\n\r\n    mapping(address => UserRole) private userRoles;\r\n\r\n    modifier onlyMedicalPersonal() {\r\n        require(userRoles[msg.sender] == UserRole.MedicalPersonal, \"Access denied. Requires Medical Personal role\");\r\n        _;\r\n    }\r\n\r\n    modifier onlyPatient() {\r\n        require(userRoles[msg.sender] == UserRole.Patient, \"Access denied. Requires Patient role\");\r\n        _;\r\n    }\r\n\r\n    struct RoleProperties {\r\n        bool allowCreatePatientRecord;\r\n        bool allowAccessPatientRecord;\r\n        bool allowSignPatientRecord;\r\n    }\r\n\r\n    mapping(UserRole => RoleProperties) private rolePermissions;\r\n\r\n    constructor() {\r\n        rolePermissions[UserRole.None] = RoleProperties(false, false, false);\r\n        rolePermissions[UserRole.Patient] = RoleProperties(false, false, true);\r\n        rolePermissions[UserRole.MedicalPersonal] = RoleProperties(true, true, false);\r\n    }\r\n\r\n    function grantMedicalPersonalRole(address _userAddress) external  {\r\n        userRoles[_userAddress] = UserRole.MedicalPersonal;\r\n    }\r\n\r\n    function grantPatientRole(address _userAddress) external  {\r\n        userRoles[_userAddress] = UserRole.Patient;\r\n    }\r\n\r\n    function grantNoneRole(address _userAddress) external  {\r\n        userRoles[_userAddress] = UserRole.None;\r\n    }\r\n\r\n    function getPacientRole(address _userAddress) external view returns (UserRole) {\r\n        return userRoles[_userAddress];\r\n    }\r\n\r\n    function canCreatePatientRecord() external view returns (bool) {\r\n        return rolePermissions[userRoles[msg.sender]].allowCreatePatientRecord;\r\n    }\r\n\r\n    function canAccessPatientRecord() external view returns (bool) {\r\n        return rolePermissions[userRoles[msg.sender]].allowAccessPatientRecord;\r\n    }\r\n}\r\n",
  "sourcePath": "C:\\Users\\Utilizador\\OneDrive\\Documentos\\GitHub\\Web3DocumentsProj\\truffle\\contracts\\Role.sol",
  "compiler": {
    "name": "solc",
    "version": "0.8.17+commit.8df45f5f.Emscripten.clang"
  },
  "schemaVersion": "3.4.16",
  "updatedAt": "2024-01-16T21:31:39.130Z",
  "networkType": "ethereum",
  "devdoc": {
    "kind": "dev",
    "methods": {},
    "version": 1
  },
  "userdoc": {
    "kind": "user",
    "methods": {},
    "version": 1
  }
}