{
  "contractName": "User",
  "abi": [
    {
      "inputs": [
        {
          "internalType": "address",
          "name": "_roleContractAddress",
          "type": "address"
        }
      ],
      "stateMutability": "nonpayable",
      "type": "constructor"
    },
    {
      "anonymous": false,
      "inputs": [
        {
          "indexed": true,
          "internalType": "address",
          "name": "userAddress",
          "type": "address"
        },
        {
          "indexed": false,
          "internalType": "string",
          "name": "name",
          "type": "string"
        },
        {
          "indexed": false,
          "internalType": "uint256",
          "name": "createdDate",
          "type": "uint256"
        },
        {
          "indexed": false,
          "internalType": "enum Role.UserRole",
          "name": "role",
          "type": "uint8"
        }
      ],
      "name": "UserCreated",
      "type": "event"
    },
    {
      "anonymous": false,
      "inputs": [
        {
          "indexed": true,
          "internalType": "address",
          "name": "userAddress",
          "type": "address"
        },
        {
          "indexed": false,
          "internalType": "uint256",
          "name": "lastChangedDate",
          "type": "uint256"
        }
      ],
      "name": "UserUpdated",
      "type": "event"
    },
    {
      "inputs": [
        {
          "internalType": "string",
          "name": "_name",
          "type": "string"
        },
        {
          "internalType": "enum Role.UserRole",
          "name": "_role",
          "type": "uint8"
        }
      ],
      "name": "createUser",
      "outputs": [],
      "stateMutability": "nonpayable",
      "type": "function"
    },
    {
      "inputs": [
        {
          "internalType": "string",
          "name": "_newUserName",
          "type": "string"
        }
      ],
      "name": "updateUser",
      "outputs": [],
      "stateMutability": "nonpayable",
      "type": "function"
    },
    {
      "inputs": [],
      "name": "getUser",
      "outputs": [
        {
          "internalType": "address",
          "name": "publicAddress",
          "type": "address"
        },
        {
          "internalType": "string",
          "name": "name",
          "type": "string"
        },
        {
          "internalType": "enum Role.UserRole",
          "name": "role",
          "type": "uint8"
        },
        {
          "internalType": "uint256",
          "name": "createdDate",
          "type": "uint256"
        },
        {
          "internalType": "uint256",
          "name": "lastChangedDate",
          "type": "uint256"
        }
      ],
      "stateMutability": "view",
      "type": "function",
      "constant": true
    },
    {
      "inputs": [],
      "name": "hasMedicalPersonalRole",
      "outputs": [
        {
          "internalType": "bool",
          "name": "",
          "type": "bool"
        }
      ],
      "stateMutability": "view",
      "type": "function",
      "constant": true
    },
    {
      "inputs": [],
      "name": "hasPatientRole",
      "outputs": [
        {
          "internalType": "bool",
          "name": "",
          "type": "bool"
        }
      ],
      "stateMutability": "view",
      "type": "function",
      "constant": true
    }
  ],
  "bytecode": "0x60806040523480156200001157600080fd5b50604051620018f7380380620018f78339818101604052810190620000379190620000e9565b80600260006101000a81548173ffffffffffffffffffffffffffffffffffffffff021916908373ffffffffffffffffffffffffffffffffffffffff160217905550506200011b565b600080fd5b600073ffffffffffffffffffffffffffffffffffffffff82169050919050565b6000620000b18262000084565b9050919050565b620000c381620000a4565b8114620000cf57600080fd5b50565b600081519050620000e381620000b8565b92915050565b6000602082840312156200010257620001016200007f565b5b60006200011284828501620000d2565b91505092915050565b6117cc806200012b6000396000f3fe608060405234801561001057600080fd5b50600436106100575760003560e01c80630b4f12f61461005c578063269e97f9146100785780634609613014610096578063832880e7146100b2578063b25324c6146100d4575b600080fd5b61007660048036038101906100719190610cf5565b6100f2565b005b61008061035f565b60405161008d9190610d59565b60405180910390f35b6100b060048036038101906100ab9190610d99565b610429565b005b6100ba6108c2565b6040516100cb959493929190610f45565b60405180910390f35b6100dc610a38565b6040516100e99190610d59565b60405180910390f35b6000815111610136576040517f08c379a000000000000000000000000000000000000000000000000000000000815260040161012d90610feb565b60405180910390fd5b60ff8151111561017b576040517f08c379a000000000000000000000000000000000000000000000000000000000815260040161017290611057565b60405180910390fd5b600073ffffffffffffffffffffffffffffffffffffffff166000803373ffffffffffffffffffffffffffffffffffffffff1673ffffffffffffffffffffffffffffffffffffffff16815260200190815260200160002060000160009054906101000a900473ffffffffffffffffffffffffffffffffffffffff1673ffffffffffffffffffffffffffffffffffffffff160361024b576040517f08c379a0000000000000000000000000000000000000000000000000000000008152600401610242906110c3565b60405180910390fd5b60008060003373ffffffffffffffffffffffffffffffffffffffff1673ffffffffffffffffffffffffffffffffffffffff16815260200190815260200160002090508180519060200120816001016040516102a691906111e6565b6040518091039020036102ee576040517f08c379a00000000000000000000000000000000000000000000000000000000081526004016102e59061126f565b60405180910390fd5b818160010190816102ff919061143b565b504281600401819055503373ffffffffffffffffffffffffffffffffffffffff167f43ca283f77ef1cc413e9ed99cf3cec9f055cb57e133c045a39cbf70cb068057f8260040154604051610353919061150d565b60405180910390a25050565b60006001600281111561037557610374610eb5565b5b600260009054906101000a900473ffffffffffffffffffffffffffffffffffffffff1673ffffffffffffffffffffffffffffffffffffffff1663c0e72b4c336040518263ffffffff1660e01b81526004016103d09190611528565b602060405180830381865afa1580156103ed573d6000803e3d6000fd5b505050506040513d601f19601f820116820180604052508101906104119190611558565b600281111561042357610422610eb5565b5b14905090565b600073ffffffffffffffffffffffffffffffffffffffff166000803373ffffffffffffffffffffffffffffffffffffffff1673ffffffffffffffffffffffffffffffffffffffff16815260200190815260200160002060000160009054906101000a900473ffffffffffffffffffffffffffffffffffffffff1673ffffffffffffffffffffffffffffffffffffffff16146104f9576040517f08c379a00000000000000000000000000000000000000000000000000000000081526004016104f0906115d1565b60405180910390fd5b6001600281111561050d5761050c610eb5565b5b8160028111156105205761051f610eb5565b5b036105b757600260009054906101000a900473ffffffffffffffffffffffffffffffffffffffff1673ffffffffffffffffffffffffffffffffffffffff16637f2df8b0336040518263ffffffff1660e01b81526004016105809190611528565b600060405180830381600087803b15801561059a57600080fd5b505af11580156105ae573d6000803e3d6000fd5b5050505061076f565b6002808111156105ca576105c9610eb5565b5b8160028111156105dd576105dc610eb5565b5b0361067457600260009054906101000a900473ffffffffffffffffffffffffffffffffffffffff1673ffffffffffffffffffffffffffffffffffffffff1663e994dd4a336040518263ffffffff1660e01b815260040161063d9190611528565b600060405180830381600087803b15801561065757600080fd5b505af115801561066b573d6000803e3d6000fd5b5050505061076e565b6000600281111561068857610687610eb5565b5b81600281111561069b5761069a610eb5565b5b0361073257600260009054906101000a900473ffffffffffffffffffffffffffffffffffffffff1673ffffffffffffffffffffffffffffffffffffffff1663446421e3336040518263ffffffff1660e01b81526004016106fb9190611528565b600060405180830381600087803b15801561071557600080fd5b505af1158015610729573d6000803e3d6000fd5b5050505061076d565b6040517f08c379a00000000000000000000000000000000000000000000000000000000081526004016107649061163d565b60405180910390fd5b5b5b60008060003373ffffffffffffffffffffffffffffffffffffffff1673ffffffffffffffffffffffffffffffffffffffff1681526020019081526020016000209050338160000160006101000a81548173ffffffffffffffffffffffffffffffffffffffff021916908373ffffffffffffffffffffffffffffffffffffffff16021790555082816001019081610805919061143b565b50428160030181905550818160020160006101000a81548160ff0219169083600281111561083657610835610eb5565b5b02179055506001600081548092919061084e9061168c565b91905055503373ffffffffffffffffffffffffffffffffffffffff167f3b0aa5cbfb9a71465896cfbd9e2b63cd62533386dcceab1a00335bd76fa05fa38260010183600301548460020160009054906101000a900460ff166040516108b593929190611758565b60405180910390a2505050565b6000606060008060006108d433610b01565b610913576040517f08c379a000000000000000000000000000000000000000000000000000000000815260040161090a906110c3565b60405180910390fd5b60008060003373ffffffffffffffffffffffffffffffffffffffff1673ffffffffffffffffffffffffffffffffffffffff16815260200190815260200160002090508060000160009054906101000a900473ffffffffffffffffffffffffffffffffffffffff16816001018260020160009054906101000a900460ff16836003015484600401548380546109a690611112565b80601f01602080910402602001604051908101604052809291908181526020018280546109d290611112565b8015610a1f5780601f106109f457610100808354040283529160200191610a1f565b820191906000526020600020905b815481529060010190602001808311610a0257829003601f168201915b5050505050935095509550955095509550509091929394565b6000600280811115610a4d57610a4c610eb5565b5b600260009054906101000a900473ffffffffffffffffffffffffffffffffffffffff1673ffffffffffffffffffffffffffffffffffffffff1663c0e72b4c336040518263ffffffff1660e01b8152600401610aa89190611528565b602060405180830381865afa158015610ac5573d6000803e3d6000fd5b505050506040513d601f19601f82011682018060405250810190610ae99190611558565b6002811115610afb57610afa610eb5565b5b14905090565b60008073ffffffffffffffffffffffffffffffffffffffff166000808473ffffffffffffffffffffffffffffffffffffffff1673ffffffffffffffffffffffffffffffffffffffff16815260200190815260200160002060000160009054906101000a900473ffffffffffffffffffffffffffffffffffffffff1673ffffffffffffffffffffffffffffffffffffffff1614159050919050565b6000604051905090565b600080fd5b600080fd5b600080fd5b600080fd5b6000601f19601f8301169050919050565b7f4e487b7100000000000000000000000000000000000000000000000000000000600052604160045260246000fd5b610c0282610bb9565b810181811067ffffffffffffffff82111715610c2157610c20610bca565b5b80604052505050565b6000610c34610b9b565b9050610c408282610bf9565b919050565b600067ffffffffffffffff821115610c6057610c5f610bca565b5b610c6982610bb9565b9050602081019050919050565b82818337600083830152505050565b6000610c98610c9384610c45565b610c2a565b905082815260208101848484011115610cb457610cb3610bb4565b5b610cbf848285610c76565b509392505050565b600082601f830112610cdc57610cdb610baf565b5b8135610cec848260208601610c85565b91505092915050565b600060208284031215610d0b57610d0a610ba5565b5b600082013567ffffffffffffffff811115610d2957610d28610baa565b5b610d3584828501610cc7565b91505092915050565b60008115159050919050565b610d5381610d3e565b82525050565b6000602082019050610d6e6000830184610d4a565b92915050565b60038110610d8157600080fd5b50565b600081359050610d9381610d74565b92915050565b60008060408385031215610db057610daf610ba5565b5b600083013567ffffffffffffffff811115610dce57610dcd610baa565b5b610dda85828601610cc7565b9250506020610deb85828601610d84565b9150509250929050565b600073ffffffffffffffffffffffffffffffffffffffff82169050919050565b6000610e2082610df5565b9050919050565b610e3081610e15565b82525050565b600081519050919050565b600082825260208201905092915050565b60005b83811015610e70578082015181840152602081019050610e55565b60008484015250505050565b6000610e8782610e36565b610e918185610e41565b9350610ea1818560208601610e52565b610eaa81610bb9565b840191505092915050565b7f4e487b7100000000000000000000000000000000000000000000000000000000600052602160045260246000fd5b60038110610ef557610ef4610eb5565b5b50565b6000819050610f0682610ee4565b919050565b6000610f1682610ef8565b9050919050565b610f2681610f0b565b82525050565b6000819050919050565b610f3f81610f2c565b82525050565b600060a082019050610f5a6000830188610e27565b8181036020830152610f6c8187610e7c565b9050610f7b6040830186610f1d565b610f886060830185610f36565b610f956080830184610f36565b9695505050505050565b7f4e65772075736572206e616d65206d757374206e6f7420626520656d70747900600082015250565b6000610fd5601f83610e41565b9150610fe082610f9f565b602082019050919050565b6000602082019050818103600083015261100481610fc8565b9050919050565b7f4e65772075736572206e616d6520697320746f6f206c6f6e6700000000000000600082015250565b6000611041601983610e41565b915061104c8261100b565b602082019050919050565b6000602082019050818103600083015261107081611034565b9050919050565b7f5573657220646f6573206e6f7420657869737400000000000000000000000000600082015250565b60006110ad601383610e41565b91506110b882611077565b602082019050919050565b600060208201905081810360008301526110dc816110a0565b9050919050565b7f4e487b7100000000000000000000000000000000000000000000000000000000600052602260045260246000fd5b6000600282049050600182168061112a57607f821691505b60208210810361113d5761113c6110e3565b5b50919050565b600081905092915050565b60008190508160005260206000209050919050565b6000815461117081611112565b61117a8186611143565b9450600182166000811461119557600181146111aa576111dd565b60ff19831686528115158202860193506111dd565b6111b38561114e565b60005b838110156111d5578154818901526001820191506020810190506111b6565b838801955050505b50505092915050565b60006111f28284611163565b915081905092915050565b7f4e65772075736572206e616d65206973207468652073616d652061732074686560008201527f2063757272656e74206e616d6500000000000000000000000000000000000000602082015250565b6000611259602d83610e41565b9150611264826111fd565b604082019050919050565b600060208201905081810360008301526112888161124c565b9050919050565b60008190508160005260206000209050919050565b60006020601f8301049050919050565b600082821b905092915050565b6000600883026112f17fffffffffffffffffffffffffffffffffffffffffffffffffffffffffffffffff826112b4565b6112fb86836112b4565b95508019841693508086168417925050509392505050565b6000819050919050565b600061133861133361132e84610f2c565b611313565b610f2c565b9050919050565b6000819050919050565b6113528361131d565b61136661135e8261133f565b8484546112c1565b825550505050565b600090565b61137b61136e565b611386818484611349565b505050565b5b818110156113aa5761139f600082611373565b60018101905061138c565b5050565b601f8211156113ef576113c08161128f565b6113c9846112a4565b810160208510156113d8578190505b6113ec6113e4856112a4565b83018261138b565b50505b505050565b600082821c905092915050565b6000611412600019846008026113f4565b1980831691505092915050565b600061142b8383611401565b9150826002028217905092915050565b61144482610e36565b67ffffffffffffffff81111561145d5761145c610bca565b5b6114678254611112565b6114728282856113ae565b600060209050601f8311600181146114a55760008415611493578287015190505b61149d858261141f565b865550611505565b601f1984166114b38661128f565b60005b828110156114db578489015182556001820191506020850194506020810190506114b6565b868310156114f857848901516114f4601f891682611401565b8355505b6001600288020188555050505b505050505050565b60006020820190506115226000830184610f36565b92915050565b600060208201905061153d6000830184610e27565b92915050565b60008151905061155281610d74565b92915050565b60006020828403121561156e5761156d610ba5565b5b600061157c84828501611543565b91505092915050565b7f5573657220616c72656164792065786973747300000000000000000000000000600082015250565b60006115bb601383610e41565b91506115c682611585565b602082019050919050565b600060208201905081810360008301526115ea816115ae565b9050919050565b7f496e76616c696420726f6c650000000000000000000000000000000000000000600082015250565b6000611627600c83610e41565b9150611632826115f1565b602082019050919050565b600060208201905081810360008301526116568161161a565b9050919050565b7f4e487b7100000000000000000000000000000000000000000000000000000000600052601160045260246000fd5b600061169782610f2c565b91507fffffffffffffffffffffffffffffffffffffffffffffffffffffffffffffffff82036116c9576116c861165d565b5b600182019050919050565b600081546116e181611112565b6116eb8186610e41565b94506001821660008114611706576001811461171c5761174f565b60ff19831686528115156020028601935061174f565b6117258561128f565b60005b8381101561174757815481890152600182019150602081019050611728565b808801955050505b50505092915050565b6000606082019050818103600083015261177281866116d4565b90506117816020830185610f36565b61178e6040830184610f1d565b94935050505056fea264697066735822122047bc8305cb850cc597b46c986fce24d2f86b5063dba0681f4063113031c9600664736f6c63430008110033",
  "immutableReferences": {},
  "source": "// SPDX-License-Identifier: UNLICENSED\r\npragma solidity ^0.8.17;\r\n\r\nimport \"./Role.sol\"; \r\n\r\ncontract User {\r\n    struct UserData {\r\n        address publicAddress;\r\n        string name;\r\n        Role.UserRole role; \r\n        uint256 createdDate;\r\n        uint256 lastChangedDate;\r\n    }\r\n\r\n    mapping(address => UserData) private users;\r\n    uint256 private numberOfUsers;\r\n\r\n    Role private roleContract;\r\n\r\n    event UserCreated(address indexed userAddress, string name, uint256 createdDate, Role.UserRole role);\r\n    event UserUpdated(address indexed userAddress, uint256 lastChangedDate);\r\n\r\n    constructor(address _roleContractAddress) {\r\n        roleContract = Role(_roleContractAddress);\r\n    }\r\n\r\n    function createUser(string memory _name, Role.UserRole _role) external {\r\n        require(users[msg.sender].publicAddress == address(0), \"User already exists\");\r\n\r\n        if (_role == Role.UserRole.Patient){\r\n            roleContract.grantPatientRole(msg.sender);\r\n        } else if (_role == Role.UserRole.MedicalPersonal){\r\n            roleContract.grantMedicalPersonalRole(msg.sender);\r\n        } else if (_role == Role.UserRole.None){\r\n            roleContract.grantNoneRole(msg.sender);\r\n        } else {\r\n            revert(\"Invalid role\");\r\n        }\r\n\r\n        UserData storage newUser = users[msg.sender];\r\n        newUser.publicAddress = msg.sender;\r\n        newUser.name = _name;\r\n        newUser.createdDate = block.timestamp;\r\n        newUser.role = _role;\r\n        numberOfUsers++;\r\n\r\n        emit UserCreated(msg.sender, newUser.name, newUser.createdDate, newUser.role);\r\n    }\r\n\r\n    function updateUser(string memory _newUserName) external {\r\n        require(bytes(_newUserName).length > 0, \"New user name must not be empty\");\r\n        require(bytes(_newUserName).length <= 255, \"New user name is too long\");\r\n\r\n        require(users[msg.sender].publicAddress != address(0), \"User does not exist\");\r\n\r\n        UserData storage existingUser = users[msg.sender];\r\n\r\n        require(keccak256(bytes(existingUser.name)) != keccak256(bytes(_newUserName)), \"New user name is the same as the current name\");\r\n\r\n        existingUser.name = _newUserName;\r\n        existingUser.lastChangedDate = block.timestamp;\r\n\r\n        emit UserUpdated(msg.sender, existingUser.lastChangedDate);\r\n    }\r\n\r\n    function getUser() external view returns (\r\n        address publicAddress,\r\n        string memory name,\r\n        Role.UserRole role,\r\n        uint256 createdDate,\r\n        uint256 lastChangedDate) {\r\n        require(userExists(msg.sender), \"User does not exist\");\r\n\r\n        UserData storage existingUser = users[msg.sender];\r\n\r\n        return (\r\n            existingUser.publicAddress,\r\n            existingUser.name,\r\n            existingUser.role,\r\n            existingUser.createdDate,\r\n            existingUser.lastChangedDate\r\n        );\r\n    }\r\n\r\n    function userExists(address _userAddress) internal view returns (bool) {\r\n        return users[_userAddress].publicAddress != address(0);\r\n    }\r\n\r\n    function hasMedicalPersonalRole() external view returns (bool) {\r\n        return roleContract.getPacientRole(msg.sender) == Role.UserRole.MedicalPersonal;\r\n    }\r\n\r\n    function hasPatientRole() external view returns (bool) {\r\n        return roleContract.getPacientRole(msg.sender) == Role.UserRole.Patient;\r\n    }\r\n}\r\n",
  "sourcePath": "C:\\Users\\Utilizador\\OneDrive\\Documentos\\GitHub\\Web3DocumentsProj\\truffle\\contracts\\User.sol",
  "compiler": {
    "name": "solc",
    "version": "0.8.17+commit.8df45f5f.Emscripten.clang"
  },
  "schemaVersion": "3.4.16",
  "updatedAt": "2024-01-16T21:31:39.125Z",
  "networkType": "ethereum",
  "devdoc": {
    "kind": "dev",
    "methods": {},
    "version": 1
  },
  "userdoc": {
    "kind": "user",
    "methods": {},
    "version": 1
  }
}